{
  "address": "0xD5734c42E2e593933231bE61BAc2B94ACdc44DC4",
  "abi": [
    {
      "inputs": [
        {
          "internalType": "address",
          "name": "admin_",
          "type": "address"
        },
        {
          "internalType": "address",
          "name": "v1PriceOracle_",
          "type": "address"
        },
        {
          "internalType": "address",
          "name": "registry_",
          "type": "address"
        },
        {
          "internalType": "address",
          "name": "reference_",
          "type": "address"
        }
      ],
      "payable": false,
      "stateMutability": "nonpayable",
      "type": "constructor"
    },
    {
      "anonymous": false,
      "inputs": [
        {
          "indexed": false,
          "internalType": "address",
          "name": "tokenAddress",
          "type": "address"
        },
        {
          "indexed": false,
          "internalType": "address",
          "name": "base",
          "type": "address"
        },
        {
          "indexed": false,
          "internalType": "address",
          "name": "quote",
          "type": "address"
        },
        {
          "indexed": false,
          "internalType": "bool",
          "name": "isUsed",
          "type": "bool"
        }
      ],
      "name": "AggregatorUpdated",
      "type": "event"
    },
    {
      "anonymous": false,
      "inputs": [
        {
          "indexed": false,
          "internalType": "address",
          "name": "tokenAddress",
          "type": "address"
        },
        {
          "indexed": false,
          "internalType": "bool",
          "name": "isDeprecated",
          "type": "bool"
        }
      ],
      "name": "DeprecatedMarketUpdated",
      "type": "event"
    },
    {
      "anonymous": false,
      "inputs": [
        {
          "indexed": false,
          "internalType": "address",
          "name": "tokenAddress",
          "type": "address"
        },
        {
          "indexed": false,
          "internalType": "string",
          "name": "symbol",
          "type": "string"
        },
        {
          "indexed": false,
          "internalType": "bool",
          "name": "isUsed",
          "type": "bool"
        }
      ],
      "name": "ReferenceUpdated",
      "type": "event"
    },
    {
      "anonymous": false,
      "inputs": [
        {
          "indexed": false,
          "internalType": "address",
          "name": "admin",
          "type": "address"
        }
      ],
      "name": "SetAdmin",
      "type": "event"
    },
    {
      "anonymous": false,
      "inputs": [
        {
          "indexed": false,
          "internalType": "address",
          "name": "guardian",
          "type": "address"
        }
      ],
      "name": "SetGuardian",
      "type": "event"
    },
    {
      "constant": true,
      "inputs": [],
      "name": "ARS",
      "outputs": [
        {
          "internalType": "address",
          "name": "",
          "type": "address"
        }
      ],
      "payable": false,
      "stateMutability": "view",
      "type": "function"
    },
    {
      "constant": true,
      "inputs": [],
      "name": "AUD",
      "outputs": [
        {
          "internalType": "address",
          "name": "",
          "type": "address"
        }
      ],
      "payable": false,
      "stateMutability": "view",
      "type": "function"
    },
    {
      "constant": true,
      "inputs": [],
      "name": "BRL",
      "outputs": [
        {
          "internalType": "address",
          "name": "",
          "type": "address"
        }
      ],
      "payable": false,
      "stateMutability": "view",
      "type": "function"
    },
    {
      "constant": true,
      "inputs": [],
      "name": "BTC",
      "outputs": [
        {
          "internalType": "address",
          "name": "",
          "type": "address"
        }
      ],
      "payable": false,
      "stateMutability": "view",
      "type": "function"
    },
    {
      "constant": true,
      "inputs": [],
      "name": "CAD",
      "outputs": [
        {
          "internalType": "address",
          "name": "",
          "type": "address"
        }
      ],
      "payable": false,
      "stateMutability": "view",
      "type": "function"
    },
    {
      "constant": true,
      "inputs": [],
      "name": "CHF",
      "outputs": [
        {
          "internalType": "address",
          "name": "",
          "type": "address"
        }
      ],
      "payable": false,
      "stateMutability": "view",
      "type": "function"
    },
    {
      "constant": true,
      "inputs": [],
      "name": "CNY",
      "outputs": [
        {
          "internalType": "address",
          "name": "",
          "type": "address"
        }
      ],
      "payable": false,
      "stateMutability": "view",
      "type": "function"
    },
    {
      "constant": true,
      "inputs": [],
      "name": "ETH",
      "outputs": [
        {
          "internalType": "address",
          "name": "",
          "type": "address"
        }
      ],
      "payable": false,
      "stateMutability": "view",
      "type": "function"
    },
    {
      "constant": true,
      "inputs": [],
      "name": "EUR",
      "outputs": [
        {
          "internalType": "address",
          "name": "",
          "type": "address"
        }
      ],
      "payable": false,
      "stateMutability": "view",
      "type": "function"
    },
    {
      "constant": true,
      "inputs": [],
      "name": "GBP",
      "outputs": [
        {
          "internalType": "address",
          "name": "",
          "type": "address"
        }
      ],
      "payable": false,
      "stateMutability": "view",
      "type": "function"
    },
    {
      "constant": true,
      "inputs": [],
      "name": "INR",
      "outputs": [
        {
          "internalType": "address",
          "name": "",
          "type": "address"
        }
      ],
      "payable": false,
      "stateMutability": "view",
      "type": "function"
    },
    {
      "constant": true,
      "inputs": [],
      "name": "JPY",
      "outputs": [
        {
          "internalType": "address",
          "name": "",
          "type": "address"
        }
      ],
      "payable": false,
      "stateMutability": "view",
      "type": "function"
    },
    {
      "constant": true,
      "inputs": [],
      "name": "KRW",
      "outputs": [
        {
          "internalType": "address",
          "name": "",
          "type": "address"
        }
      ],
      "payable": false,
      "stateMutability": "view",
      "type": "function"
    },
    {
      "constant": true,
      "inputs": [],
      "name": "NGN",
      "outputs": [
        {
          "internalType": "address",
          "name": "",
          "type": "address"
        }
      ],
      "payable": false,
      "stateMutability": "view",
      "type": "function"
    },
    {
      "constant": true,
      "inputs": [],
      "name": "NZD",
      "outputs": [
        {
          "internalType": "address",
          "name": "",
          "type": "address"
        }
      ],
      "payable": false,
      "stateMutability": "view",
      "type": "function"
    },
    {
      "constant": true,
      "inputs": [],
      "name": "PHP",
      "outputs": [
        {
          "internalType": "address",
          "name": "",
          "type": "address"
        }
      ],
      "payable": false,
      "stateMutability": "view",
      "type": "function"
    },
    {
      "constant": true,
      "inputs": [],
      "name": "QUOTE_SYMBOL",
      "outputs": [
        {
          "internalType": "string",
          "name": "",
          "type": "string"
        }
      ],
      "payable": false,
      "stateMutability": "view",
      "type": "function"
    },
    {
      "constant": true,
      "inputs": [],
      "name": "RUB",
      "outputs": [
        {
          "internalType": "address",
          "name": "",
          "type": "address"
        }
      ],
      "payable": false,
      "stateMutability": "view",
      "type": "function"
    },
    {
      "constant": true,
      "inputs": [],
      "name": "SGD",
      "outputs": [
        {
          "internalType": "address",
          "name": "",
          "type": "address"
        }
      ],
      "payable": false,
      "stateMutability": "view",
      "type": "function"
    },
    {
      "constant": true,
      "inputs": [],
      "name": "USD",
      "outputs": [
        {
          "internalType": "address",
          "name": "",
          "type": "address"
        }
      ],
      "payable": false,
      "stateMutability": "view",
      "type": "function"
    },
    {
      "constant": true,
      "inputs": [],
      "name": "ZAR",
      "outputs": [
        {
          "internalType": "address",
          "name": "",
          "type": "address"
        }
      ],
      "payable": false,
      "stateMutability": "view",
      "type": "function"
    },
    {
      "constant": false,
      "inputs": [
        {
          "internalType": "address",
          "name": "tokenAddress",
          "type": "address"
        }
      ],
      "name": "_disableAggregator",
      "outputs": [],
      "payable": false,
      "stateMutability": "nonpayable",
      "type": "function"
    },
    {
      "constant": false,
      "inputs": [
        {
          "internalType": "address",
          "name": "tokenAddress",
          "type": "address"
        }
      ],
      "name": "_disableReference",
      "outputs": [],
      "payable": false,
      "stateMutability": "nonpayable",
      "type": "function"
    },
    {
      "constant": false,
      "inputs": [
        {
          "internalType": "address",
          "name": "tokenAddress",
          "type": "address"
        }
      ],
      "name": "_enableAggregator",
      "outputs": [],
      "payable": false,
      "stateMutability": "nonpayable",
      "type": "function"
    },
    {
      "constant": false,
      "inputs": [
        {
          "internalType": "address",
          "name": "tokenAddress",
          "type": "address"
        }
      ],
      "name": "_enableReference",
      "outputs": [],
      "payable": false,
      "stateMutability": "nonpayable",
      "type": "function"
    },
    {
      "constant": false,
      "inputs": [
        {
          "internalType": "address",
          "name": "_admin",
          "type": "address"
        }
      ],
      "name": "_setAdmin",
      "outputs": [],
      "payable": false,
      "stateMutability": "nonpayable",
      "type": "function"
    },
    {
      "constant": false,
      "inputs": [
        {
          "internalType": "address[]",
          "name": "tokenAddresses",
          "type": "address[]"
        },
        {
          "internalType": "address[]",
          "name": "bases",
          "type": "address[]"
        },
        {
          "internalType": "address[]",
          "name": "quotes",
          "type": "address[]"
        }
      ],
      "name": "_setAggregators",
      "outputs": [],
      "payable": false,
      "stateMutability": "nonpayable",
      "type": "function"
    },
    {
      "constant": false,
      "inputs": [
        {
          "internalType": "address",
          "name": "_guardian",
          "type": "address"
        }
      ],
      "name": "_setGuardian",
      "outputs": [],
      "payable": false,
      "stateMutability": "nonpayable",
      "type": "function"
    },
    {
      "constant": false,
      "inputs": [
        {
          "internalType": "address[]",
          "name": "tokenAddresses",
          "type": "address[]"
        },
        {
          "internalType": "string[]",
          "name": "symbols",
          "type": "string[]"
        }
      ],
      "name": "_setReferences",
      "outputs": [],
      "payable": false,
      "stateMutability": "nonpayable",
      "type": "function"
    },
    {
      "constant": false,
      "inputs": [
        {
          "internalType": "address[]",
          "name": "tokenAddresses",
          "type": "address[]"
        },
        {
          "internalType": "bool[]",
          "name": "deprecated",
          "type": "bool[]"
        }
      ],
      "name": "_updateDeprecatedMarkets",
      "outputs": [],
      "payable": false,
      "stateMutability": "nonpayable",
      "type": "function"
    },
    {
      "constant": true,
      "inputs": [],
      "name": "admin",
      "outputs": [
        {
          "internalType": "address",
          "name": "",
          "type": "address"
        }
      ],
      "payable": false,
      "stateMutability": "view",
      "type": "function"
    },
    {
      "constant": true,
      "inputs": [
        {
          "internalType": "address",
          "name": "",
          "type": "address"
        }
      ],
      "name": "aggregators",
      "outputs": [
        {
          "internalType": "address",
          "name": "base",
          "type": "address"
        },
        {
          "internalType": "address",
          "name": "quote",
          "type": "address"
        },
        {
          "internalType": "bool",
          "name": "isUsed",
          "type": "bool"
        }
      ],
      "payable": false,
      "stateMutability": "view",
      "type": "function"
    },
    {
      "constant": true,
      "inputs": [
        {
          "internalType": "address",
          "name": "",
          "type": "address"
        }
      ],
      "name": "deprecatedMarkets",
      "outputs": [
        {
          "internalType": "bool",
          "name": "",
          "type": "bool"
        }
      ],
      "payable": false,
      "stateMutability": "view",
      "type": "function"
    },
    {
      "constant": true,
      "inputs": [
        {
          "internalType": "contract CToken",
          "name": "cToken",
          "type": "address"
        }
      ],
      "name": "getUnderlyingPrice",
      "outputs": [
        {
          "internalType": "uint256",
          "name": "",
          "type": "uint256"
        }
      ],
      "payable": false,
      "stateMutability": "view",
      "type": "function"
    },
    {
      "constant": true,
      "inputs": [],
      "name": "guardian",
      "outputs": [
        {
          "internalType": "address",
          "name": "",
          "type": "address"
        }
      ],
      "payable": false,
      "stateMutability": "view",
      "type": "function"
    },
    {
      "constant": true,
      "inputs": [],
      "name": "ref",
      "outputs": [
        {
          "internalType": "contract StdReferenceInterface",
          "name": "",
          "type": "address"
        }
      ],
      "payable": false,
      "stateMutability": "view",
      "type": "function"
    },
    {
      "constant": true,
      "inputs": [
        {
          "internalType": "address",
          "name": "",
          "type": "address"
        }
      ],
      "name": "references",
      "outputs": [
        {
          "internalType": "string",
          "name": "symbol",
          "type": "string"
        },
        {
          "internalType": "bool",
          "name": "isUsed",
          "type": "bool"
        }
      ],
      "payable": false,
      "stateMutability": "view",
      "type": "function"
    },
    {
      "constant": true,
      "inputs": [],
      "name": "reg",
      "outputs": [
        {
          "internalType": "contract FeedRegistryInterface",
          "name": "",
          "type": "address"
        }
      ],
      "payable": false,
      "stateMutability": "view",
      "type": "function"
    },
    {
      "constant": true,
      "inputs": [],
      "name": "v1PriceOracle",
      "outputs": [
        {
          "internalType": "contract V1PriceOracleInterface",
          "name": "",
          "type": "address"
        }
      ],
      "payable": false,
      "stateMutability": "view",
      "type": "function"
    }
  ],
  "transactionHash": "0x295460bea7d8aac5ffe7fc818a97f558f6c437fa5021b6cfcc335d22ffd3b1f0",
  "args": [
    "0xA5fC0BbfcD05827ed582869b7254b6f141BA84Eb",
    "0x3aBce8F1DB258fBc64827b0926e14A0F90525CF7",
    "0x47Fb2585D2C56Fe188D0E6ec628a38b74fCeeeDf",
    "0xDA7a001b254CD22e46d3eAB04d937489c93174C3"
  ],
  "numDeployments": 1,
  "solcInputHash": "e68b9c2178841d0d8dfc2712afc0f685",
  "bytecode": "0x60806040523480156200001157600080fd5b5060405162002da338038062002da383398101604081905262000034916200009b565b600080546001600160a01b039586166001600160a01b031991821617909155600680549486169482169490941790935560048054928516928416929092179091556005805491909316911617905562000131565b8051620000958162000117565b92915050565b60008060008060808587031215620000b257600080fd5b6000620000c0878762000088565b9450506020620000d38782880162000088565b9350506040620000e68782880162000088565b9250506060620000f98782880162000088565b91505092959194509250565b60006001600160a01b03821662000095565b620001228162000105565b81146200012e57600080fd5b50565b612c6280620001416000396000f3fe608060405234801561001057600080fd5b506004361061023d5760003560e01c8063598853761161013b578063ae6a04d4116100b8578063f851a4401161007c578063f851a4401461041a578063f9ff41db14610422578063fc57d4df14610442578063fd760c4914610462578063fe10c98d1461046a5761023d565b8063ae6a04d4146103dc578063ca9d1a72146103ef578063e38e8c0f146103f7578063e774928e1461040a578063f37fcc42146104125761023d565b8063738fdd1a116100ff578063738fdd1a146103b45780638322fff2146103bc578063976d5e77146103c45780639db2a472146103cc578063a4a23595146103d45761023d565b806359885376146103525780635c8ed2f3146103655780636a5dd409146103865780636b09583c146103995780636dc3bb13146103a15761023d565b80632792949d116101c9578063452a93201161018d578063452a93201461031d57806345a4117314610325578063465bd0a31461033a57806353f7c3671461034257806356ef45141461034a5761023d565b80632792949d146102df578063294a2bf2146102e75780632e79477f146102ef5780633a74a767146102f75780634079f35d1461030a5761023d565b8063112cdab911610210578063112cdab91461028557806311748f1c146102a757806319342a64146102ba5780631bf6c21b146102c257806321a78f68146102ca5761023d565b806301b8b3391461024257806303d698f21461026057806309c71f4c146102685780630c0128341461027d575b600080fd5b61024a610472565b6040516102579190612821565b60405180910390f35b61024a610478565b61027b6102763660046120e8565b61047e565b005b61024a61063e565b61029861029336600461200b565b610643565b60405161025793929190612888565b61027b6102b536600461200b565b610675565b61024a61080a565b61024a61080f565b6102d2610815565b6040516102579190612940565b61024a610824565b61024a61083c565b61024a610842565b61027b61030536600461200b565b610848565b61027b6103183660046120e8565b6108f4565b61024a610c96565b61032d610ca5565b6040516102579190612974565b61024a610cc4565b61024a610cca565b61024a610cd0565b61027b61036036600461200b565b610cd6565b61037861037336600461200b565b610fa8565b6040516102579291906129aa565b61027b61039436600461200b565b611052565b61024a61111a565b61027b6103af36600461200b565b611120565b6102d2611200565b61024a61120f565b61024a611227565b61024a61122d565b61024a611233565b61027b6103ea366004612047565b611238565b61024a611754565b61027b61040536600461200b565b61175a565b61024a6117d5565b61024a6117db565b61024a6117e1565b61043561043036600461200b565b6117f0565b6040516102579190612932565b610455610450366004612194565b611805565b6040516102579190612b0b565b61024a611a61565b6102d2611a66565b61033a81565b61023681565b6000546001600160a01b031633146104b15760405162461bcd60e51b81526004016104a890612aeb565b60405180910390fd5b8281146104d05760405162461bcd60e51b81526004016104a890612a3b565b60005b83811015610637578282828181106104e757fe5b90506020020160206104fc9190810190612158565b15156007600087878581811061050e57fe5b9050602002016020610523919081019061200b565b6001600160a01b0316815260208101919091526040016000205460ff1615151461062f5782828281811061055357fe5b90506020020160206105689190810190612158565b6007600087878581811061057857fe5b905060200201602061058d919081019061200b565b6001600160a01b031681526020810191909152604001600020805460ff19169115159190911790557f2cd78fe8c13555e7f6dadd7b513f7be9549dc68a6b1853e95e8ae312dfa902e98585838181106105e257fe5b90506020020160206105f7919081019061200b565b84848481811061060357fe5b90506020020160206106189190810190612158565b6040516106269291906128b8565b60405180910390a15b6001016104d3565b5050505050565b602081565b600260205260009081526040902080546001909101546001600160a01b0391821691811690600160a01b900460ff1683565b6000546001600160a01b031633148061069857506001546001600160a01b031633145b6106b45760405162461bcd60e51b81526004016104a890612adb565b6001600160a01b0381166000908152600360205260409020600181015460ff16156106f15760405162461bcd60e51b81526004016104a890612a1b565b6106f9611e53565b60055460408051808201825260038152621554d160ea1b6020820152905163195556f360e21b81526001600160a01b03909216916365555bcc91610742918691906004016129ca565b60606040518083038186803b15801561075a57600080fd5b505afa15801561076e573d6000803e3d6000fd5b505050506040513d601f19601f8201168201806040525061079291908101906121b2565b80519091506107b35760405162461bcd60e51b81526004016104a890612a5b565b6001828101805460ff1916909117908190556040517f4184c679f002966cd74ef1d937e6c4f542ce507b2fd2e398a9923caf31f4cc1f916107fd918691869160ff90911690612903565b60405180910390a1505050565b607c81565b61034881565b6005546001600160a01b031681565b73bbbbbbbbbbbbbbbbbbbbbbbbbbbbbbbbbbbbbbbb81565b6103d281565b6102be81565b6000546001600160a01b031633146108725760405162461bcd60e51b81526004016104a890612a0b565b6001600160a01b0381166108985760405162461bcd60e51b81526004016104a890612a8b565b600080546001600160a01b0319166001600160a01b0383811691909117918290556040517f5a272403b402d892977df56625f4164ccaf70ca3863991c43ecfe76a6905b0a1926108e9921690612821565b60405180910390a150565b6000546001600160a01b0316331461091e5760405162461bcd60e51b81526004016104a890612aab565b82811461093d5760405162461bcd60e51b81526004016104a890612a3b565b60005b8381101561063757600083838381811061095657fe5b602002820190508035601e193684900301811261097257600080fd5b9091016020810191503567ffffffffffffffff81111561099157600080fd5b368190038213156109a157600080fd5b159050610ac8575060016109b3611e53565b6005546001600160a01b03166365555bcc8686868181106109d057fe5b602002820190508035601e19368490030181126109ec57600080fd5b9091016020810191503567ffffffffffffffff811115610a0b57600080fd5b36819003821315610a1b57600080fd5b604051806040016040528060038152602001621554d160ea1b8152506040518463ffffffff1660e01b8152600401610a559392919061294e565b60606040518083038186803b158015610a6d57600080fd5b505afa158015610a81573d6000803e3d6000fd5b505050506040513d601f19601f82011682018060405250610aa591908101906121b2565b8051909150610ac65760405162461bcd60e51b81526004016104a890612a5b565b505b6040518060400160405280858585818110610adf57fe5b602002820190508035601e1936849003018112610afb57600080fd5b9091016020810191503567ffffffffffffffff811115610b1a57600080fd5b36819003821315610b2a57600080fd5b8080601f0160208091040260200160405190810160405280939291908181526020018383808284376000920182905250938552505050831515602090920191909152600390888886818110610b7b57fe5b9050602002016020610b90919081019061200b565b6001600160a01b03168152602080820192909252604001600020825180519192610bbf92849290910190611e74565b50602091909101516001909101805460ff19169115159190911790557f4184c679f002966cd74ef1d937e6c4f542ce507b2fd2e398a9923caf31f4cc1f868684818110610c0857fe5b9050602002016020610c1d919081019061200b565b858585818110610c2957fe5b602002820190508035601e1936849003018112610c4557600080fd5b9091016020810191503567ffffffffffffffff811115610c6457600080fd5b36819003821315610c7457600080fd5b84604051610c8594939291906128d3565b60405180910390a150600101610940565b6001546001600160a01b031681565b604051806040016040528060038152602001621554d160ea1b81525081565b61018881565b61026081565b61019a81565b6000546001600160a01b0316331480610cf957506001546001600160a01b031633145b610d155760405162461bcd60e51b81526004016104a890612acb565b6001600160a01b03811660009081526002602052604090206001810154600160a01b900460ff1615610d595760405162461bcd60e51b81526004016104a890612a2b565b600480548254600184015460405163d2edb6dd60e01b81526000946001600160a01b039485169463d2edb6dd94610d9794908216939116910161282f565b60206040518083038186803b158015610daf57600080fd5b505afa158015610dc3573d6000803e3d6000fd5b505050506040513d601f19601f82011682018060405250610de79190810190612029565b6004805460405163b099d43b60e01b81529293506001600160a01b03169163b099d43b91610e1791859101612821565b60206040518083038186803b158015610e2f57600080fd5b505afa158015610e43573d6000803e3d6000fd5b505050506040513d601f19601f82011682018060405250610e679190810190612176565b610e835760405162461bcd60e51b81526004016104a8906129db565b600480548354600185015460405163bcfd032d60e01b81526000946001600160a01b039485169463bcfd032d94610ec194908216939116910161282f565b60a06040518083038186803b158015610ed957600080fd5b505afa158015610eed573d6000803e3d6000fd5b505050506040513d601f19601f82011682018060405250610f1191908101906121ee565b50505091505060008113610f375760405162461bcd60e51b81526004016104a890612a5b565b60018301805460ff60a01b1916600160a01b9081179182905584546040517f1ce411df4a158aa72e588cc62a13841fd7f7e644f81b10b60b90cb97b9017fa793610f9a9389936001600160a01b0390811693908316929190910460ff169061284a565b60405180910390a150505050565b60036020908152600091825260409182902080548351601f6002600019610100600186161502019093169290920491820184900484028101840190945280845290929183919083018282801561103f5780601f106110145761010080835404028352916020019161103f565b820191906000526020600020905b81548152906001019060200180831161102257829003601f168201915b5050506001909301549192505060ff1682565b6000546001600160a01b031633148061107557506001546001600160a01b031633145b6110915760405162461bcd60e51b81526004016104a8906129eb565b6001600160a01b0381166000908152600360205260409020600181015460ff166110cd5760405162461bcd60e51b81526004016104a8906129fb565b60018101805460ff191690556040517f4184c679f002966cd74ef1d937e6c4f542ce507b2fd2e398a9923caf31f4cc1f9061110e9084908490600090612903565b60405180910390a15050565b6103da81565b6000546001600160a01b031633148061114357506001546001600160a01b031633145b61115f5760405162461bcd60e51b81526004016104a890612afb565b6001600160a01b03811660009081526002602052604090206001810154600160a01b900460ff166111a25760405162461bcd60e51b81526004016104a890612a4b565b60018101805460ff60a01b1981169182905582546040517f1ce411df4a158aa72e588cc62a13841fd7f7e644f81b10b60b90cb97b9017fa79361110e9387936001600160a01b0390811693911691600160a01b900460ff169061284a565b6004546001600160a01b031681565b73eeeeeeeeeeeeeeeeeeeeeeeeeeeeeeeeeeeeeeee81565b61028381565b6102c681565b609c81565b6000546001600160a01b031633146112625760405162461bcd60e51b81526004016104a890612a6b565b848314801561127057508481145b61128c5760405162461bcd60e51b81526004016104a890612a3b565b60005b8581101561174b576000808686848181106112a657fe5b90506020020160206112bb919081019061200b565b6001600160a01b0316146115a95773eeeeeeeeeeeeeeeeeeeeeeeeeeeeeeeeeeeeeeee8484848181106112ea57fe5b90506020020160206112ff919081019061200b565b6001600160a01b0316148061133e575061034884848481811061131e57fe5b9050602002016020611333919081019061200b565b6001600160a01b0316145b61135a5760405162461bcd60e51b81526004016104a890612a9b565b506004546001906000906001600160a01b031663d2edb6dd88888681811061137e57fe5b9050602002016020611393919081019061200b565b87878781811061139f57fe5b90506020020160206113b4919081019061200b565b6040518363ffffffff1660e01b81526004016113d192919061282f565b60206040518083038186803b1580156113e957600080fd5b505afa1580156113fd573d6000803e3d6000fd5b505050506040513d601f19601f820116820180604052506114219190810190612029565b6004805460405163b099d43b60e01b81529293506001600160a01b03169163b099d43b9161145191859101612821565b60206040518083038186803b15801561146957600080fd5b505afa15801561147d573d6000803e3d6000fd5b505050506040513d601f19601f820116820180604052506114a19190810190612176565b6114bd5760405162461bcd60e51b81526004016104a8906129db565b6004546000906001600160a01b031663bcfd032d8989878181106114dd57fe5b90506020020160206114f2919081019061200b565b8888888181106114fe57fe5b9050602002016020611513919081019061200b565b6040518363ffffffff1660e01b815260040161153092919061282f565b60a06040518083038186803b15801561154857600080fd5b505afa15801561155c573d6000803e3d6000fd5b505050506040513d601f19601f8201168201806040525061158091908101906121ee565b505050915050600081136115a65760405162461bcd60e51b81526004016104a890612a5b565b50505b60405180606001604052808787858181106115c057fe5b90506020020160206115d5919081019061200b565b6001600160a01b031681526020018585858181106115ef57fe5b9050602002016020611604919081019061200b565b6001600160a01b03168152602001821515815250600260008a8a8681811061162857fe5b905060200201602061163d919081019061200b565b6001600160a01b0390811682526020808301939093526040918201600020845181549083166001600160a01b0319918216178255938501516001909101805495909301511515600160a01b0260ff60a01b19919092169490931693909317919091169190911790557f1ce411df4a158aa72e588cc62a13841fd7f7e644f81b10b60b90cb97b9017fa78888848181106116d257fe5b90506020020160206116e7919081019061200b565b8787858181106116f357fe5b9050602002016020611708919081019061200b565b86868681811061171457fe5b9050602002016020611729919081019061200b565b8460405161173a949392919061284a565b60405180910390a15060010161128f565b50505050505050565b61022a81565b6000546001600160a01b031633146117845760405162461bcd60e51b81526004016104a890612a7b565b600180546001600160a01b0319166001600160a01b0383811691909117918290556040517f31845eceb9cde510c7e8b37f76301c688feb70bc9653aa4c28a3734999840fd8926108e9921690612821565b61016481565b6102f481565b6000546001600160a01b031681565b60076020526000908152604090205460ff1681565b600080826001600160a01b0316636f307dc36040518163ffffffff1660e01b815260040160206040518083038186803b15801561184157600080fd5b505afa158015611855573d6000803e3d6000fd5b505050506040513d601f19601f820116820180604052506118799190810190612029565b6001600160a01b0381166000908152600260205260409020600181015491925090600160a01b900460ff161561194957805460018201546000916118c9916001600160a01b039182169116611a75565b60018301549091506001600160a01b031673eeeeeeeeeeeeeeeeeeeeeeeeeeeeeeeeeeeeeeee141561193557600061191773eeeeeeeeeeeeeeeeeeeeeeeeeeeeeeeeeeeeeeee610348611a75565b905061193182604051806020016040528084815250611bbc565b9150505b61193f8184611be4565b9350505050611a5c565b6001600160a01b0382166000908152600360205260409020600181015460ff1615611a1a57805460408051602060026001851615610100026000190190941693909304601f8101849004840282018401909252818152600092611a039285918301828280156119f95780601f106119ce576101008083540402835291602001916119f9565b820191906000526020600020905b8154815290600101906020018083116119dc57829003601f168201915b5050505050611c6d565b9050611a0f8185611be4565b945050505050611a5c565b6001600160a01b03831660009081526007602052604090205460ff1615611a445761193f83611d38565b60405162461bcd60e51b81526004016104a890612abb565b919050565b602481565b6006546001600160a01b031681565b6004805460405163bcfd032d60e01b815260009283926001600160a01b03169163bcfd032d91611aa991889188910161282f565b60a06040518083038186803b158015611ac157600080fd5b505afa158015611ad5573d6000803e3d6000fd5b505050506040513d601f19601f82011682018060405250611af991908101906121ee565b50505091505060008113611b1f5760405162461bcd60e51b81526004016104a890612a5b565b60048054604051630b1c5a7560e31b8152611bb29284926001600160a01b0316916358e2d3a891611b54918a918a910161282f565b60206040518083038186803b158015611b6c57600080fd5b505afa158015611b80573d6000803e3d6000fd5b505050506040513d601f19601f82011682018060405250611ba49190810190612263565b60ff16601203600a0a611db9565b9150505b92915050565b6000670de0b6b3a7640000611bd5848460000151611db9565b81611bdc57fe5b049392505050565b600080826001600160a01b031663313ce5676040518163ffffffff1660e01b815260040160206040518083038186803b158015611c2057600080fd5b505afa158015611c34573d6000803e3d6000fd5b505050506040513d601f19601f82011682018060405250611c589190810190612263565b60ff169050611bb28482601203600a0a611db9565b6000611c77611e53565b60055460408051808201825260038152621554d160ea1b6020820152905163195556f360e21b81526001600160a01b03909216916365555bcc91611cc091879190600401612985565b60606040518083038186803b158015611cd857600080fd5b505afa158015611cec573d6000803e3d6000fd5b505050506040513d601f19601f82011682018060405250611d1091908101906121b2565b8051909150611d315760405162461bcd60e51b81526004016104a890612a5b565b5192915050565b6006546040516317a6948f60e21b81526000916001600160a01b031690635e9a523c90611d69908590600401612821565b60206040518083038186803b158015611d8157600080fd5b505afa158015611d95573d6000803e3d6000fd5b505050506040513d601f19601f82011682018060405250611bb691908101906121d0565b6000611dfb83836040518060400160405280601781526020017f6d756c7469706c69636174696f6e206f766572666c6f77000000000000000000815250611e02565b9392505050565b6000831580611e0f575082155b15611e1c57506000611dfb565b83830283858281611e2957fe5b04148390611e4a5760405162461bcd60e51b81526004016104a89190612974565b50949350505050565b60405180606001604052806000815260200160008152602001600081525090565b828054600181600116156101000203166002900490600052602060002090601f016020900481019282601f10611eb557805160ff1916838001178555611ee2565b82800160010185558215611ee2579182015b82811115611ee2578251825591602001919060010190611ec7565b50611eee929150611ef2565b5090565b611f0c91905b80821115611eee5760008155600101611ef8565b90565b8035611bb681612bdb565b8051611bb681612bdb565b60008083601f840112611f3757600080fd5b50813567ffffffffffffffff811115611f4f57600080fd5b602083019150836020820283011115611f6757600080fd5b9250929050565b8035611bb681612bf2565b8051611bb681612bf2565b8035611bb681612bfb565b8051611bb681612c04565b600060608284031215611fac57600080fd5b611fb66060612b19565b90506000611fc48484611f8f565b8252506020611fd584848301611f8f565b6020830152506040611fe984828501611f8f565b60408301525092915050565b8051611bb681612c16565b8051611bb681612c0d565b60006020828403121561201d57600080fd5b6000611bb28484611f0f565b60006020828403121561203b57600080fd5b6000611bb28484611f1a565b6000806000806000806060878903121561206057600080fd5b863567ffffffffffffffff81111561207757600080fd5b61208389828a01611f25565b9650965050602087013567ffffffffffffffff8111156120a257600080fd5b6120ae89828a01611f25565b9450945050604087013567ffffffffffffffff8111156120cd57600080fd5b6120d989828a01611f25565b92509250509295509295509295565b600080600080604085870312156120fe57600080fd5b843567ffffffffffffffff81111561211557600080fd5b61212187828801611f25565b9450945050602085013567ffffffffffffffff81111561214057600080fd5b61214c87828801611f25565b95989497509550505050565b60006020828403121561216a57600080fd5b6000611bb28484611f6e565b60006020828403121561218857600080fd5b6000611bb28484611f79565b6000602082840312156121a657600080fd5b6000611bb28484611f84565b6000606082840312156121c457600080fd5b6000611bb28484611f9a565b6000602082840312156121e257600080fd5b6000611bb28484611f8f565b600080600080600060a0868803121561220657600080fd5b60006122128888611ff5565b955050602061222388828901611f8f565b945050604061223488828901611f8f565b935050606061224588828901611f8f565b925050608061225688828901611ff5565b9150509295509295909350565b60006020828403121561227557600080fd5b6000611bb28484612000565b61228a81612b59565b82525050565b61228a81612b64565b61228a81612b69565b60006122ae8385612b50565b93506122bb838584612b95565b6122c483612bd1565b9093019392505050565b60006122d982612b4c565b6122e38185612b50565b93506122f3818560208601612ba1565b6122c481612bd1565b600081546001811660008114612319576001811461233f5761237e565b607f600283041661232a8187612b50565b60ff198416815295505060208501925061237e565b6002820461234d8187612b50565b955061235885612b40565b60005b828110156123775781548882015260019091019060200161235b565b8701945050505b505092915050565b6000612393601683612b50565b751859d9dc9959d85d1bdc881b9bdd08195b98589b195960521b815260200192915050565b60006123c5603483612b50565b7f6f6e6c79207468652061646d696e206f7220677561726469616e206d61792064815273697361626c6520746865207265666572656e636560601b602082015260400192915050565b600061241b601283612b50565b711c9959995c995b98d9481b9bdd081d5cd95960721b815260200192915050565b6000612449602083612b50565b7f6f6e6c79207468652061646d696e206d617920736574206e65772061646d696e815260200192915050565b6000612482601983612b50565b7f7265666572656e636520697320616c7265616479207573656400000000000000815260200192915050565b60006124bb601a83612b50565b7f61676772656761746f7220697320616c72656164792075736564000000000000815260200192915050565b60006124f4600f83612b50565b6e6d69736d617463686564206461746160881b815260200192915050565b600061251f601383612b50565b721859d9dc9959d85d1bdc881b9bdd081d5cd959606a1b815260200192915050565b600061254e600d83612b50565b6c696e76616c696420707269636560981b815260200192915050565b6000612577602683612b50565b7f6f6e6c79207468652061646d696e206d617920736574207468652061676772658152656761746f727360d01b602082015260400192915050565b60006125bf602383612b50565b7f6f6e6c79207468652061646d696e206d617920736574206e657720677561726481526234b0b760e91b602082015260400192915050565b6000612604600d83612b50565b6c34b73b30b634b21030b236b4b760991b815260200192915050565b600061262d601883612b50565b7f756e737570706f727465642064656e6f6d696e6174696f6e0000000000000000815260200192915050565b6000612666602583612b50565b7f6f6e6c79207468652061646d696e206d61792073657420746865207265666572815264656e63657360d81b602082015260400192915050565b60006126ad600883612b50565b676e6f20707269636560c01b815260200192915050565b60006126d1603483612b50565b7f6f6e6c79207468652061646d696e206f7220677561726469616e206d617920658152733730b13632903a34329030b3b3b932b3b0ba37b960611b602082015260400192915050565b6000612727603383612b50565b7f6f6e6c79207468652061646d696e206f7220677561726469616e206d617920658152726e61626c6520746865207265666572656e636560681b602082015260400192915050565b600061277c603083612b50565b7f6f6e6c79207468652061646d696e206d6179207570646174652074686520646581526f7072656361746564206d61726b65747360801b602082015260400192915050565b60006127ce603583612b50565b7f6f6e6c79207468652061646d696e206f7220677561726469616e206d6179206481527434b9b0b13632903a34329030b3b3b932b3b0ba37b960591b602082015260400192915050565b61228a81611f0c565b60208101611bb68284612281565b6040810161283d8285612281565b611dfb6020830184612281565b608081016128588287612281565b6128656020830186612281565b6128726040830185612281565b61287f6060830184612290565b95945050505050565b606081016128968286612281565b6128a36020830185612281565b6128b06040830184612290565b949350505050565b604081016128c68285612281565b611dfb6020830184612290565b606081016128e18287612281565b81810360208301526128f48185876122a2565b905061287f6040830184612290565b606081016129118286612281565b818103602083015261292381856122fc565b90506128b06040830184612290565b60208101611bb68284612290565b60208101611bb68284612299565b604080825281016129608185876122a2565b9050818103602083015261287f81846122ce565b60208082528101611dfb81846122ce565b6040808252810161299681856122ce565b905081810360208301526128b081846122ce565b604080825281016129bb81856122ce565b9050611dfb6020830184612290565b6040808252810161299681856122fc565b60208082528101611bb681612386565b60208082528101611bb6816123b8565b60208082528101611bb68161240e565b60208082528101611bb68161243c565b60208082528101611bb681612475565b60208082528101611bb6816124ae565b60208082528101611bb6816124e7565b60208082528101611bb681612512565b60208082528101611bb681612541565b60208082528101611bb68161256a565b60208082528101611bb6816125b2565b60208082528101611bb6816125f7565b60208082528101611bb681612620565b60208082528101611bb681612659565b60208082528101611bb6816126a0565b60208082528101611bb6816126c4565b60208082528101611bb68161271a565b60208082528101611bb68161276f565b60208082528101611bb6816127c1565b60208101611bb68284612818565b60405181810167ffffffffffffffff81118282101715612b3857600080fd5b604052919050565b60009081526020902090565b5190565b90815260200190565b6000611bb682612b74565b151590565b6000611bb682612b59565b6001600160a01b031690565b60ff1690565b69ffffffffffffffffffff1690565b82818337506000910152565b60005b83811015612bbc578181015183820152602001612ba4565b83811115612bcb576000848401525b50505050565b601f01601f191690565b612be481612b59565b8114612bef57600080fd5b50565b612be481612b64565b612be481612b69565b612be481611f0c565b612be481612b80565b612be481612b8656fea365627a7a72315820fb72bb2199ff2dfe329423a3c7f845458a782637ab6eed8dcad22a501b2ce78a6c6578706572696d656e74616cf564736f6c63430005110040",
  "devdoc": {
    "methods": {
      "_disableAggregator(address)": {
        "params": {
          "tokenAddress": "The underlying token"
        }
      },
      "_disableReference(address)": {
        "params": {
          "tokenAddress": "The underlying token"
        }
      },
      "_enableAggregator(address)": {
        "params": {
          "tokenAddress": "The underlying token"
        }
      },
      "_enableReference(address)": {
        "params": {
          "tokenAddress": "The underlying token"
        }
      },
      "_setAdmin(address)": {
        "params": {
          "_admin": "The new admin"
        }
      },
      "_setAggregators(address[],address[],address[])": {
        "params": {
          "bases": "The list of ChainLink aggregator bases",
          "quotes": "The list of ChainLink aggregator quotes, currently support 'ETH' and 'USD'",
          "tokenAddresses": "The list of underlying tokens"
        }
      },
      "_setGuardian(address)": {
        "params": {
          "_guardian": "The new guardian"
        }
      },
      "_setReferences(address[],string[])": {
        "params": {
          "symbols": "The list of symbols used by Band reference",
          "tokenAddresses": "The list of underlying tokens"
        }
      },
      "_updateDeprecatedMarkets(address[],bool[])": {
        "params": {
          "deprecated": "The list of tokens are deprecated or not",
          "tokenAddresses": "The list of underlying tokens"
        }
      },
      "constructor": {
        "params": {
          "admin_": "The address of admin to set aggregators",
          "reference_": "The address of Band reference",
          "registry_": "The address of ChainLink registry",
          "v1PriceOracle_": "The v1 price oracle"
        }
      },
      "getUnderlyingPrice(address)": {
        "params": {
          "cToken": "The cToken to get the underlying price of"
        },
        "return": "The underlying asset price mantissa (scaled by 1e18)"
      }
    }
  },
  "userdoc": {
    "methods": {
      "_disableAggregator(address)": {
        "notice": "Disable ChainLink aggregator"
      },
      "_disableReference(address)": {
        "notice": "Disable Band reference"
      },
      "_enableAggregator(address)": {
        "notice": "Enable ChainLink aggregator"
      },
      "_enableReference(address)": {
        "notice": "Enable Band reference"
      },
      "_setAdmin(address)": {
        "notice": "Set admin for price oracle proxy"
      },
      "_setAggregators(address[],address[],address[])": {
        "notice": "Set ChainLink aggregators for multiple tokens"
      },
      "_setGuardian(address)": {
        "notice": "Set guardian for price oracle proxy"
      },
      "_setReferences(address[],string[])": {
        "notice": "Set Band references for multiple tokens"
      },
      "_updateDeprecatedMarkets(address[],bool[])": {
        "notice": "Update deprecated markets for multiple tokens"
      },
      "getUnderlyingPrice(address)": {
        "notice": "Get the underlying price of a listed cToken asset"
      }
    }
  },
  "storageLayout": {
    "storage": [
      {
        "astId": 35820,
        "contract": "contracts/PriceOracle/PriceOracleProxyIB.sol:PriceOracleProxyIB",
        "label": "admin",
        "offset": 0,
        "slot": "0",
        "type": "t_address"
      },
      {
        "astId": 35822,
        "contract": "contracts/PriceOracle/PriceOracleProxyIB.sol:PriceOracleProxyIB",
        "label": "guardian",
        "offset": 0,
        "slot": "1",
        "type": "t_address"
      },
      {
        "astId": 35838,
        "contract": "contracts/PriceOracle/PriceOracleProxyIB.sol:PriceOracleProxyIB",
        "label": "aggregators",
        "offset": 0,
        "slot": "2",
        "type": "t_mapping(t_address,t_struct(AggregatorInfo)35829_storage)"
      },
      {
        "astId": 35842,
        "contract": "contracts/PriceOracle/PriceOracleProxyIB.sol:PriceOracleProxyIB",
        "label": "references",
        "offset": 0,
        "slot": "3",
        "type": "t_mapping(t_address,t_struct(ReferenceInfo)35834_storage)"
      },
      {
        "astId": 35844,
        "contract": "contracts/PriceOracle/PriceOracleProxyIB.sol:PriceOracleProxyIB",
        "label": "reg",
        "offset": 0,
        "slot": "4",
        "type": "t_contract(FeedRegistryInterface)37027"
      },
      {
        "astId": 35846,
        "contract": "contracts/PriceOracle/PriceOracleProxyIB.sol:PriceOracleProxyIB",
        "label": "ref",
        "offset": 0,
        "slot": "5",
        "type": "t_contract(StdReferenceInterface)36931"
      },
      {
        "astId": 35848,
        "contract": "contracts/PriceOracle/PriceOracleProxyIB.sol:PriceOracleProxyIB",
        "label": "v1PriceOracle",
        "offset": 0,
        "slot": "6",
        "type": "t_contract(V1PriceOracleInterface)37279"
      },
      {
        "astId": 35852,
        "contract": "contracts/PriceOracle/PriceOracleProxyIB.sol:PriceOracleProxyIB",
        "label": "deprecatedMarkets",
        "offset": 0,
        "slot": "7",
        "type": "t_mapping(t_address,t_bool)"
      }
    ],
    "types": {
      "t_address": {
        "encoding": "inplace",
        "label": "address",
        "numberOfBytes": "20"
      },
      "t_bool": {
        "encoding": "inplace",
        "label": "bool",
        "numberOfBytes": "1"
      },
      "t_contract(FeedRegistryInterface)37027": {
        "encoding": "inplace",
        "label": "contract FeedRegistryInterface",
        "numberOfBytes": "20"
      },
      "t_contract(StdReferenceInterface)36931": {
        "encoding": "inplace",
        "label": "contract StdReferenceInterface",
        "numberOfBytes": "20"
      },
      "t_contract(V1PriceOracleInterface)37279": {
        "encoding": "inplace",
        "label": "contract V1PriceOracleInterface",
        "numberOfBytes": "20"
      },
      "t_mapping(t_address,t_bool)": {
        "encoding": "mapping",
        "key": "t_address",
        "label": "mapping(address => bool)",
        "numberOfBytes": "32",
        "value": "t_bool"
      },
      "t_mapping(t_address,t_struct(AggregatorInfo)35829_storage)": {
        "encoding": "mapping",
        "key": "t_address",
        "label": "mapping(address => struct PriceOracleProxyIB.AggregatorInfo)",
        "numberOfBytes": "32",
        "value": "t_struct(AggregatorInfo)35829_storage"
      },
      "t_mapping(t_address,t_struct(ReferenceInfo)35834_storage)": {
        "encoding": "mapping",
        "key": "t_address",
        "label": "mapping(address => struct PriceOracleProxyIB.ReferenceInfo)",
        "numberOfBytes": "32",
        "value": "t_struct(ReferenceInfo)35834_storage"
      },
      "t_string_storage": {
        "encoding": "bytes",
        "label": "string",
        "numberOfBytes": "32"
      },
      "t_struct(AggregatorInfo)35829_storage": {
        "encoding": "inplace",
        "label": "struct PriceOracleProxyIB.AggregatorInfo",
        "members": [
          {
            "astId": 35824,
            "contract": "contracts/PriceOracle/PriceOracleProxyIB.sol:PriceOracleProxyIB",
            "label": "base",
            "offset": 0,
            "slot": "0",
            "type": "t_address"
          },
          {
            "astId": 35826,
            "contract": "contracts/PriceOracle/PriceOracleProxyIB.sol:PriceOracleProxyIB",
            "label": "quote",
            "offset": 0,
            "slot": "1",
            "type": "t_address"
          },
          {
            "astId": 35828,
            "contract": "contracts/PriceOracle/PriceOracleProxyIB.sol:PriceOracleProxyIB",
            "label": "isUsed",
            "offset": 20,
            "slot": "1",
            "type": "t_bool"
          }
        ],
        "numberOfBytes": "64"
      },
      "t_struct(ReferenceInfo)35834_storage": {
        "encoding": "inplace",
        "label": "struct PriceOracleProxyIB.ReferenceInfo",
        "members": [
          {
            "astId": 35831,
            "contract": "contracts/PriceOracle/PriceOracleProxyIB.sol:PriceOracleProxyIB",
            "label": "symbol",
            "offset": 0,
            "slot": "0",
            "type": "t_string_storage"
          },
          {
            "astId": 35833,
            "contract": "contracts/PriceOracle/PriceOracleProxyIB.sol:PriceOracleProxyIB",
            "label": "isUsed",
            "offset": 0,
            "slot": "1",
            "type": "t_bool"
          }
        ],
        "numberOfBytes": "64"
      }
    }
  }
}