{
  "address": "0xf2Acee535Ebb8B9Bb875646E134CdDEb6f5a97ef",
  "abi": [
    {
      "inputs": [
        {
          "internalType": "uint256",
          "name": "baseRatePerYear",
          "type": "uint256"
        },
        {
          "internalType": "uint256",
          "name": "multiplierPerYear",
          "type": "uint256"
        },
        {
          "internalType": "uint256",
          "name": "jumpMultiplierPerYear",
          "type": "uint256"
        },
        {
          "internalType": "uint256",
          "name": "kink1_",
          "type": "uint256"
        },
        {
          "internalType": "uint256",
          "name": "kink2_",
          "type": "uint256"
        },
        {
          "internalType": "uint256",
          "name": "roof_",
          "type": "uint256"
        }
      ],
      "payable": false,
      "stateMutability": "nonpayable",
      "type": "constructor"
    },
    {
      "anonymous": false,
      "inputs": [
        {
          "indexed": false,
          "internalType": "uint256",
          "name": "baseRatePerBlock",
          "type": "uint256"
        },
        {
          "indexed": false,
          "internalType": "uint256",
          "name": "multiplierPerBlock",
          "type": "uint256"
        },
        {
          "indexed": false,
          "internalType": "uint256",
          "name": "jumpMultiplierPerBlock",
          "type": "uint256"
        },
        {
          "indexed": false,
          "internalType": "uint256",
          "name": "kink1",
          "type": "uint256"
        },
        {
          "indexed": false,
          "internalType": "uint256",
          "name": "kink2",
          "type": "uint256"
        },
        {
          "indexed": false,
          "internalType": "uint256",
          "name": "roof",
          "type": "uint256"
        }
      ],
      "name": "NewInterestParams",
      "type": "event"
    },
    {
      "constant": true,
      "inputs": [],
      "name": "baseRatePerBlock",
      "outputs": [
        {
          "internalType": "uint256",
          "name": "",
          "type": "uint256"
        }
      ],
      "payable": false,
      "stateMutability": "view",
      "type": "function"
    },
    {
      "constant": true,
      "inputs": [],
      "name": "blocksPerYear",
      "outputs": [
        {
          "internalType": "uint256",
          "name": "",
          "type": "uint256"
        }
      ],
      "payable": false,
      "stateMutability": "view",
      "type": "function"
    },
    {
      "constant": true,
      "inputs": [
        {
          "internalType": "uint256",
          "name": "cash",
          "type": "uint256"
        },
        {
          "internalType": "uint256",
          "name": "borrows",
          "type": "uint256"
        },
        {
          "internalType": "uint256",
          "name": "reserves",
          "type": "uint256"
        }
      ],
      "name": "getBorrowRate",
      "outputs": [
        {
          "internalType": "uint256",
          "name": "",
          "type": "uint256"
        }
      ],
      "payable": false,
      "stateMutability": "view",
      "type": "function"
    },
    {
      "constant": true,
      "inputs": [
        {
          "internalType": "uint256",
          "name": "cash",
          "type": "uint256"
        },
        {
          "internalType": "uint256",
          "name": "borrows",
          "type": "uint256"
        },
        {
          "internalType": "uint256",
          "name": "reserves",
          "type": "uint256"
        },
        {
          "internalType": "uint256",
          "name": "reserveFactorMantissa",
          "type": "uint256"
        }
      ],
      "name": "getSupplyRate",
      "outputs": [
        {
          "internalType": "uint256",
          "name": "",
          "type": "uint256"
        }
      ],
      "payable": false,
      "stateMutability": "view",
      "type": "function"
    },
    {
      "constant": true,
      "inputs": [],
      "name": "isInterestRateModel",
      "outputs": [
        {
          "internalType": "bool",
          "name": "",
          "type": "bool"
        }
      ],
      "payable": false,
      "stateMutability": "view",
      "type": "function"
    },
    {
      "constant": true,
      "inputs": [],
      "name": "jumpMultiplierPerBlock",
      "outputs": [
        {
          "internalType": "uint256",
          "name": "",
          "type": "uint256"
        }
      ],
      "payable": false,
      "stateMutability": "view",
      "type": "function"
    },
    {
      "constant": true,
      "inputs": [],
      "name": "kink1",
      "outputs": [
        {
          "internalType": "uint256",
          "name": "",
          "type": "uint256"
        }
      ],
      "payable": false,
      "stateMutability": "view",
      "type": "function"
    },
    {
      "constant": true,
      "inputs": [],
      "name": "kink2",
      "outputs": [
        {
          "internalType": "uint256",
          "name": "",
          "type": "uint256"
        }
      ],
      "payable": false,
      "stateMutability": "view",
      "type": "function"
    },
    {
      "constant": true,
      "inputs": [],
      "name": "multiplierPerBlock",
      "outputs": [
        {
          "internalType": "uint256",
          "name": "",
          "type": "uint256"
        }
      ],
      "payable": false,
      "stateMutability": "view",
      "type": "function"
    },
    {
      "constant": true,
      "inputs": [],
      "name": "roof",
      "outputs": [
        {
          "internalType": "uint256",
          "name": "",
          "type": "uint256"
        }
      ],
      "payable": false,
      "stateMutability": "view",
      "type": "function"
    },
    {
      "constant": true,
      "inputs": [
        {
          "internalType": "uint256",
          "name": "cash",
          "type": "uint256"
        },
        {
          "internalType": "uint256",
          "name": "borrows",
          "type": "uint256"
        },
        {
          "internalType": "uint256",
          "name": "reserves",
          "type": "uint256"
        }
      ],
      "name": "utilizationRate",
      "outputs": [
        {
          "internalType": "uint256",
          "name": "",
          "type": "uint256"
        }
      ],
      "payable": false,
      "stateMutability": "view",
      "type": "function"
    }
  ],
  "transactionHash": "0x257a7c62a2993b63d3c10411feaf766e46b1b96df373c18f57ce09af887e35f8",
  "args": [
    0,
    "100000000000000000",
    "2500000000000000000",
    "800000000000000000",
    "900000000000000000",
    "1000000000000000000"
  ],
  "numDeployments": 1,
  "solcInputHash": "e68b9c2178841d0d8dfc2712afc0f685",
  "bytecode": "0x608060405234801561001057600080fd5b506040516109ef3803806109ef833981810160405260c081101561003357600080fd5b508051602082015160408301516060840151608085015160a090950151939492939192909161006f8686868686866001600160e01b0361007a16565b505050505050610354565b818311156100b95760405162461bcd60e51b81526004018080602001828103825260268152602001806109c96026913960400191505060405180910390fd5b670de0b6b3a764000081101561010b576040805162461bcd60e51b8152602060048201526012602482015271696e76616c696420726f6f662076616c756560701b604482015290519081900360640190fd5b610125622014808761020860201b6104151790919060201c565b6001556101746101436220148085610259602090811b6103b317901c565b610162670de0b6b3a76400008861025960201b6103b31790919060201c565b61020860201b6104151790919060201c565b60005561018f8462201480610208602090811b61041517901c565b600281905560038490556004839055600582905560015460005460408051928352602083019190915281810192909252606081018590526080810184905260a0810183905290517f4b73aac5f6a6d7f85af810fb244e35fa994ef635f5806dadef27143533fb64369181900360c00190a1505050505050565b600061025083836040518060400160405280601a81526020017f536166654d6174683a206469766973696f6e206279207a65726f0000000000008152506102b260201b60201c565b90505b92915050565b60008261026857506000610253565b8282028284828161027557fe5b04146102505760405162461bcd60e51b81526004018080602001828103825260218152602001806109a86021913960400191505060405180910390fd5b6000818361033e5760405162461bcd60e51b81526004018080602001828103825283818151815260200191508051906020019080838360005b838110156103035781810151838201526020016102eb565b50505050905090810190601f1680156103305780820380516001836020036101000a031916815260200191505b509250505060405180910390fd5b50600083858161034a57fe5b0495945050505050565b610645806103636000396000f3fe608060405234801561001057600080fd5b50600436106100a95760003560e01c80638726bb89116100715780638726bb891461013e578063a385fb9614610146578063b81688161461014e578063b9f9850a1461017d578063d34f611414610185578063f14039de1461018d576100a9565b806315f24053146100ae5780632191f92a146100e957806350af8cd614610105578063573be0fb1461010d5780636e71e2d814610115575b600080fd5b6100d7600480360360608110156100c457600080fd5b5080359060208101359060400135610195565b60408051918252519081900360200190f35b6100f161029f565b604080519115158252519081900360200190f35b6100d76102a4565b6100d76102aa565b6100d76004803603606081101561012b57600080fd5b50803590602081013590604001356102b0565b6100d7610315565b6100d761031b565b6100d76004803603608081101561016457600080fd5b5080359060208101359060408101359060600135610322565b6100d76103a1565b6100d76103a7565b6100d76103ad565b6000806101a38585856102b0565b905060035481116101f5576101ed6001546101e1670de0b6b3a76400006101d5600054866103b390919063ffffffff16565b9063ffffffff61041516565b9063ffffffff61045716565b915050610298565b6004548111610227576101ed6001546101e1670de0b6b3a76400006101d56000546003546103b390919063ffffffff16565b60006102526001546101e1670de0b6b3a76400006101d56000546003546103b390919063ffffffff16565b9050600061026b600454846104b190919063ffffffff16565b9050610292826101e1670de0b6b3a76400006101d5600254866103b390919063ffffffff16565b93505050505b9392505050565b600181565b60045481565b60055481565b6000826102bf57506000610298565b60006102fc6102e4846102d8888863ffffffff61045716565b9063ffffffff6104b116565b6101d586670de0b6b3a764000063ffffffff6103b316565b905060055481111561030d57506005545b949350505050565b60005481565b6220148081565b60008061033d670de0b6b3a76400008463ffffffff6104b116565b9050600061034c878787610195565b9050600061036c670de0b6b3a76400006101d5848663ffffffff6103b316565b9050610395670de0b6b3a76400006101d5836103898c8c8c6102b0565b9063ffffffff6103b316565b98975050505050505050565b60025481565b60035481565b60015481565b6000826103c25750600061040f565b828202828482816103cf57fe5b041461040c5760405162461bcd60e51b81526004018080602001828103825260218152602001806105f06021913960400191505060405180910390fd5b90505b92915050565b600061040c83836040518060400160405280601a81526020017f536166654d6174683a206469766973696f6e206279207a65726f0000000000008152506104f3565b60008282018381101561040c576040805162461bcd60e51b815260206004820152601b60248201527f536166654d6174683a206164646974696f6e206f766572666c6f770000000000604482015290519081900360640190fd5b600061040c83836040518060400160405280601f81526020017f536166654d6174683a207375627472616374696f6e20756e646572666c6f7700815250610595565b6000818361057f5760405162461bcd60e51b81526004018080602001828103825283818151815260200191508051906020019080838360005b8381101561054457818101518382015260200161052c565b50505050905090810190601f1680156105715780820380516001836020036101000a031916815260200191505b509250505060405180910390fd5b50600083858161058b57fe5b0495945050505050565b600081848411156105e75760405162461bcd60e51b815260206004820181815283516024840152835190928392604490910191908501908083836000831561054457818101518382015260200161052c565b50505090039056fe536166654d6174683a206d756c7469706c69636174696f6e206f766572666c6f77a265627a7a723158207fb0b2f8f926eeb99a34a6fd438fae63d7c272634d0f9c3731fff34be409aaf164736f6c63430005110032536166654d6174683a206d756c7469706c69636174696f6e206f766572666c6f776b696e6b31206d757374206c657373207468616e206f7220657175616c20746f206b696e6b32",
  "devdoc": {
    "author": "Iron Bank",
    "methods": {
      "constructor": {
        "params": {
          "baseRatePerYear": "The approximate target base APR, as a mantissa (scaled by 1e18)",
          "jumpMultiplierPerYear": "The multiplierPerBlock after hitting a specified utilization point",
          "kink1_": "The utilization point at which the interest rate is fixed",
          "kink2_": "The utilization point at which the jump multiplier is applied",
          "multiplierPerYear": "The rate of increase in interest rate wrt utilization (scaled by 1e18)",
          "roof_": "The utilization point at which the borrow rate is fixed"
        }
      },
      "getBorrowRate(uint256,uint256,uint256)": {
        "params": {
          "borrows": "The amount of borrows in the market",
          "cash": "The amount of cash in the market",
          "reserves": "The amount of reserves in the market"
        },
        "return": "The borrow rate percentage per block as a mantissa (scaled by 1e18)"
      },
      "getSupplyRate(uint256,uint256,uint256,uint256)": {
        "params": {
          "borrows": "The amount of borrows in the market",
          "cash": "The amount of cash in the market",
          "reserveFactorMantissa": "The current reserve factor for the market",
          "reserves": "The amount of reserves in the market"
        },
        "return": "The supply rate percentage per block as a mantissa (scaled by 1e18)"
      },
      "utilizationRate(uint256,uint256,uint256)": {
        "params": {
          "borrows": "The amount of borrows in the market",
          "cash": "The amount of cash in the market",
          "reserves": "The amount of reserves in the market (currently unused)"
        },
        "return": "The utilization rate as a mantissa between [0, 1e18]"
      }
    },
    "title": "Iron Bank's TripleSlopeRateModel Contract"
  },
  "userdoc": {
    "methods": {
      "constructor": "Construct an interest rate model",
      "getBorrowRate(uint256,uint256,uint256)": {
        "notice": "Calculates the current borrow rate per block, with the error code expected by the market"
      },
      "getSupplyRate(uint256,uint256,uint256,uint256)": {
        "notice": "Calculates the current supply rate per block"
      },
      "utilizationRate(uint256,uint256,uint256)": {
        "notice": "Calculates the utilization rate of the market: `borrows / (cash + borrows - reserves)`"
      }
    }
  },
  "storageLayout": {
    "storage": [
      {
        "astId": 37592,
        "contract": "contracts/TripleSlopeRateModel.sol:TripleSlopeRateModel",
        "label": "multiplierPerBlock",
        "offset": 0,
        "slot": "0",
        "type": "t_uint256"
      },
      {
        "astId": 37594,
        "contract": "contracts/TripleSlopeRateModel.sol:TripleSlopeRateModel",
        "label": "baseRatePerBlock",
        "offset": 0,
        "slot": "1",
        "type": "t_uint256"
      },
      {
        "astId": 37596,
        "contract": "contracts/TripleSlopeRateModel.sol:TripleSlopeRateModel",
        "label": "jumpMultiplierPerBlock",
        "offset": 0,
        "slot": "2",
        "type": "t_uint256"
      },
      {
        "astId": 37598,
        "contract": "contracts/TripleSlopeRateModel.sol:TripleSlopeRateModel",
        "label": "kink1",
        "offset": 0,
        "slot": "3",
        "type": "t_uint256"
      },
      {
        "astId": 37600,
        "contract": "contracts/TripleSlopeRateModel.sol:TripleSlopeRateModel",
        "label": "kink2",
        "offset": 0,
        "slot": "4",
        "type": "t_uint256"
      },
      {
        "astId": 37602,
        "contract": "contracts/TripleSlopeRateModel.sol:TripleSlopeRateModel",
        "label": "roof",
        "offset": 0,
        "slot": "5",
        "type": "t_uint256"
      }
    ],
    "types": {
      "t_uint256": {
        "encoding": "inplace",
        "label": "uint256",
        "numberOfBytes": "32"
      }
    }
  }
}